{
  "contractName": "BookStore",
  "abi": [
    {
      "constant": true,
      "inputs": [
        {
          "name": "",
          "type": "uint256"
        }
      ],
      "name": "books",
      "outputs": [
        {
          "name": "id",
          "type": "uint256"
        },
        {
          "name": "name",
          "type": "string"
        },
        {
          "name": "author",
          "type": "string"
        },
        {
          "name": "genre",
          "type": "string"
        },
        {
          "name": "price",
          "type": "uint256"
        }
      ],
      "payable": false,
      "stateMutability": "view",
      "type": "function",
      "signature": "0x68744046"
    },
    {
      "constant": true,
      "inputs": [],
      "name": "bookCount",
      "outputs": [
        {
          "name": "",
          "type": "uint256"
        }
      ],
      "payable": false,
      "stateMutability": "view",
      "type": "function",
      "signature": "0xb905ad78"
    },
    {
      "inputs": [],
      "payable": false,
      "stateMutability": "nonpayable",
      "type": "constructor",
      "signature": "constructor"
    },
    {
      "anonymous": false,
      "inputs": [
        {
          "indexed": false,
          "name": "id",
          "type": "uint256"
        },
        {
          "indexed": false,
          "name": "name",
          "type": "string"
        },
        {
          "indexed": false,
          "name": "author",
          "type": "string"
        },
        {
          "indexed": false,
          "name": "genre",
          "type": "string"
        },
        {
          "indexed": false,
          "name": "price",
          "type": "uint256"
        }
      ],
      "name": "BookAdded",
      "type": "event",
      "signature": "0x3044dc58179ca71b199e1813877ef8eb4366ba94f019a5da3b92d168007e1792"
    },
    {
      "anonymous": false,
      "inputs": [
        {
          "indexed": false,
          "name": "id",
          "type": "uint256"
        },
        {
          "indexed": false,
          "name": "name",
          "type": "string"
        },
        {
          "indexed": false,
          "name": "author",
          "type": "string"
        },
        {
          "indexed": false,
          "name": "genre",
          "type": "string"
        },
        {
          "indexed": false,
          "name": "price",
          "type": "uint256"
        }
      ],
      "name": "BookUpdated",
      "type": "event",
      "signature": "0x998ece830bdfde37c3b9a65c88a7c9d89ab0fc6447e462ea26c2fa790a7addf9"
    },
    {
      "anonymous": false,
      "inputs": [
        {
          "indexed": false,
          "name": "id",
          "type": "uint256"
        }
      ],
      "name": "BookDeleted",
      "type": "event",
      "signature": "0x00d5ed47574df40471633fbb8b010e6a63564a4d1b16a1de678595713ab3150d"
    },
    {
      "constant": false,
      "inputs": [
        {
          "name": "_name",
          "type": "string"
        },
        {
          "name": "_author",
          "type": "string"
        },
        {
          "name": "_genre",
          "type": "string"
        },
        {
          "name": "_price",
          "type": "uint256"
        }
      ],
      "name": "addBook",
      "outputs": [],
      "payable": false,
      "stateMutability": "nonpayable",
      "type": "function",
      "signature": "0x45e6df3d"
    },
    {
      "constant": false,
      "inputs": [
        {
          "name": "_id",
          "type": "uint256"
        }
      ],
      "name": "deleteBook",
      "outputs": [],
      "payable": false,
      "stateMutability": "nonpayable",
      "type": "function",
      "signature": "0x2151fb38"
    },
    {
      "constant": false,
      "inputs": [
        {
          "name": "_id",
          "type": "uint256"
        },
        {
          "name": "_name",
          "type": "string"
        },
        {
          "name": "_author",
          "type": "string"
        },
        {
          "name": "_genre",
          "type": "string"
        },
        {
          "name": "_price",
          "type": "uint256"
        }
      ],
      "name": "updateBook",
      "outputs": [],
      "payable": false,
      "stateMutability": "nonpayable",
      "type": "function",
      "signature": "0x2e088d9b"
    }
  ],
  "bytecode": "0x6080604052600080553480156200001557600080fd5b50620000d46040805190810160405280601081526020017f4e61204472696e692043757072696a61000000000000000000000000000000008152506040805190810160405280600a81526020017f49766f20416e64726963000000000000000000000000000000000000000000008152506040805190810160405280600581526020017f726f6d616e0000000000000000000000000000000000000000000000000000008152506103e8620000da640100000000026401000000009004565b620003ae565b6000805460019081018083556040805160a08101825282815260208082018a81528284018a905260608301899052608083018890529386528481529190942084518155915180519293620001379390850192919091019062000309565b50604082015180516200015591600284019160209091019062000309565b50606082015180516200017391600384019160209091019062000309565b50608082015181600401559050507f3044dc58179ca71b199e1813877ef8eb4366ba94f019a5da3b92d168007e17926000548585858560405180868152602001806020018060200180602001858152602001848103845288818151815260200191508051906020019080838360005b83811015620001fc578181015183820152602001620001e2565b50505050905090810190601f1680156200022a5780820380516001836020036101000a031916815260200191505b50848103835287518152875160209182019189019080838360005b838110156200025f57818101518382015260200162000245565b50505050905090810190601f1680156200028d5780820380516001836020036101000a031916815260200191505b50848103825286518152865160209182019188019080838360005b83811015620002c2578181015183820152602001620002a8565b50505050905090810190601f168015620002f05780820380516001836020036101000a031916815260200191505b509850505050505050505060405180910390a150505050565b828054600181600116156101000203166002900490600052602060002090601f016020900481019282601f106200034c57805160ff19168380011785556200037c565b828001600101855582156200037c579182015b828111156200037c5782518255916020019190600101906200035f565b506200038a9291506200038e565b5090565b620003ab91905b808211156200038a576000815560010162000395565b90565b610d6080620003be6000396000f3fe60806040526004361061006c5763ffffffff7c01000000000000000000000000000000000000000000000000000000006000350416632151fb3881146100715780632e088d9b1461009d57806345e6df3d14610267578063687440461461042a578063b905ad78146105a6575b600080fd5b34801561007d57600080fd5b5061009b6004803603602081101561009457600080fd5b50356105cd565b005b3480156100a957600080fd5b5061009b600480360360a08110156100c057600080fd5b813591908101906040810160208201356401000000008111156100e257600080fd5b8201836020820111156100f457600080fd5b8035906020019184600183028401116401000000008311171561011657600080fd5b91908080601f016020809104026020016040519081016040528093929190818152602001838380828437600092019190915250929594936020810193503591505064010000000081111561016957600080fd5b82018360208201111561017b57600080fd5b8035906020019184600183028401116401000000008311171561019d57600080fd5b91908080601f01602080910402602001604051908101604052809392919081815260200183838082843760009201919091525092959493602081019350359150506401000000008111156101f057600080fd5b82018360208201111561020257600080fd5b8035906020019184600183028401116401000000008311171561022457600080fd5b91908080601f0160208091040260200160405190810160405280939291908181526020018383808284376000920191909152509295505091359250610653915050565b34801561027357600080fd5b5061009b6004803603608081101561028a57600080fd5b8101906020810181356401000000008111156102a557600080fd5b8201836020820111156102b757600080fd5b803590602001918460018302840111640100000000831117156102d957600080fd5b91908080601f016020809104026020016040519081016040528093929190818152602001838380828437600092019190915250929594936020810193503591505064010000000081111561032c57600080fd5b82018360208201111561033e57600080fd5b8035906020019184600183028401116401000000008311171561036057600080fd5b91908080601f01602080910402602001604051908101604052809392919081815260200183838082843760009201919091525092959493602081019350359150506401000000008111156103b357600080fd5b8201836020820111156103c557600080fd5b803590602001918460018302840111640100000000831117156103e757600080fd5b91908080601f016020809104026020016040519081016040528093929190818152602001838380828437600092019190915250929550509135925061085e915050565b34801561043657600080fd5b506104546004803603602081101561044d57600080fd5b5035610a7e565b60405180868152602001806020018060200180602001858152602001848103845288818151815260200191508051906020019080838360005b838110156104a557818101518382015260200161048d565b50505050905090810190601f1680156104d25780820380516001836020036101000a031916815260200191505b50848103835287518152875160209182019189019080838360005b838110156105055781810151838201526020016104ed565b50505050905090810190601f1680156105325780820380516001836020036101000a031916815260200191505b50848103825286518152865160209182019188019080838360005b8381101561056557818101518382015260200161054d565b50505050905090810190601f1680156105925780820380516001836020036101000a031916815260200191505b509850505050505050505060405180910390f35b3480156105b257600080fd5b506105bb610c4c565b60408051918252519081900360200190f35b6000818152600160208190526040822082815591906105ee90830182610c52565b6105fc600283016000610c52565b61060a600383016000610c52565b50600060049190910181905580546000190190556040805182815290517ed5ed47574df40471633fbb8b010e6a63564a4d1b16a1de678595713ab3150d9181900360200190a150565b6000858152600160208181526040909220865161067893919092019190870190610c99565b506000858152600160209081526040909120845161069e92600290920191860190610c99565b50600085815260016020908152604090912083516106c492600390920191850190610c99565b508060016000878152602001908152602001600020600401819055507f998ece830bdfde37c3b9a65c88a7c9d89ab0fc6447e462ea26c2fa790a7addf9858585858560405180868152602001806020018060200180602001858152602001848103845288818151815260200191508051906020019080838360005b8381101561075757818101518382015260200161073f565b50505050905090810190601f1680156107845780820380516001836020036101000a031916815260200191505b50848103835287518152875160209182019189019080838360005b838110156107b757818101518382015260200161079f565b50505050905090810190601f1680156107e45780820380516001836020036101000a031916815260200191505b50848103825286518152865160209182019188019080838360005b838110156108175781810151838201526020016107ff565b50505050905090810190601f1680156108445780820380516001836020036101000a031916815260200191505b509850505050505050505060405180910390a15050505050565b6000805460019081018083556040805160a08101825282815260208082018a81528284018a9052606083018990526080830188905293865284815291909420845181559151805192936108b993908501929190910190610c99565b50604082015180516108d5916002840191602090910190610c99565b50606082015180516108f1916003840191602090910190610c99565b50608082015181600401559050507f3044dc58179ca71b199e1813877ef8eb4366ba94f019a5da3b92d168007e17926000548585858560405180868152602001806020018060200180602001858152602001848103845288818151815260200191508051906020019080838360005b83811015610978578181015183820152602001610960565b50505050905090810190601f1680156109a55780820380516001836020036101000a031916815260200191505b50848103835287518152875160209182019189019080838360005b838110156109d85781810151838201526020016109c0565b50505050905090810190601f168015610a055780820380516001836020036101000a031916815260200191505b50848103825286518152865160209182019188019080838360005b83811015610a38578181015183820152602001610a20565b50505050905090810190601f168015610a655780820380516001836020036101000a031916815260200191505b509850505050505050505060405180910390a150505050565b600160208181526000928352604092839020805481840180548651600296821615610100026000190190911695909504601f81018590048502860185019096528585529094919392909190830182828015610b1a5780601f10610aef57610100808354040283529160200191610b1a565b820191906000526020600020905b815481529060010190602001808311610afd57829003601f168201915b50505060028085018054604080516020601f6000196101006001871615020190941695909504928301859004850281018501909152818152959695945090925090830182828015610bac5780601f10610b8157610100808354040283529160200191610bac565b820191906000526020600020905b815481529060010190602001808311610b8f57829003601f168201915b5050505060038301805460408051602060026001851615610100026000190190941693909304601f8101849004840282018401909252818152949594935090830182828015610c3c5780601f10610c1157610100808354040283529160200191610c3c565b820191906000526020600020905b815481529060010190602001808311610c1f57829003601f168201915b5050505050908060040154905085565b60005481565b50805460018160011615610100020316600290046000825580601f10610c785750610c96565b601f016020900490600052602060002090810190610c969190610d17565b50565b828054600181600116156101000203166002900490600052602060002090601f016020900481019282601f10610cda57805160ff1916838001178555610d07565b82800160010185558215610d07579182015b82811115610d07578251825591602001919060010190610cec565b50610d13929150610d17565b5090565b610d3191905b80821115610d135760008155600101610d1d565b9056fea165627a7a72305820e969ef9848917b3d74b267e342ba8ad67ab32bfa0f50aea59f50b45cbc02694b0029",
  "source": "pragma solidity ^0.5.0;\r\n\r\ncontract BookStore {\r\n\tuint public bookCount = 0;\r\n\r\n\tstruct Book{\r\n\t\tuint id;\r\n\t\tstring name;\r\n\t\tstring author;\r\n\t\tstring genre;\r\n\t\tuint price;\r\n\t}\r\n\r\n\tmapping(uint => Book) public books;\r\n\r\n\tevent BookAdded(\r\n\t\tuint id,\r\n\t\tstring name,\r\n\t\tstring author,\r\n\t\tstring genre,\r\n\t\tuint price\r\n\t);\r\n\r\n\tevent BookUpdated(\r\n\t\tuint id,\r\n\t\tstring name,\r\n\t\tstring author,\r\n\t\tstring genre,\r\n\t\tuint price\r\n\t);\r\n\r\n\tevent BookDeleted(\r\n\t\tuint id\r\n\t);\r\n\r\n\tconstructor() public {\r\n\t\taddBook(\"Na Drini Cuprija\", \"Ivo Andric\", \"roman\", 1000);\r\n\t}\r\n\r\n\tfunction addBook(string memory _name, string memory _author, string memory _genre, uint _price) public{\r\n\t\tbookCount++;\r\n\t\tbooks[bookCount] = Book(bookCount, _name, _author, _genre, _price);\r\n\t\temit BookAdded(bookCount, _name, _author, _genre, _price);\r\n\t}\r\n\r\n\tfunction deleteBook(uint _id) public {\r\n\t\tdelete(books[_id]);\r\n\t\tbookCount--;\r\n\t\temit BookDeleted(_id);\r\n\t}\r\n\r\n\tfunction updateBook(uint _id, string memory _name, string memory _author, string memory _genre, uint _price) public {\r\n\t\tbooks[_id].name =  _name;\r\n\t\tbooks[_id].author = _author;\r\n\t\tbooks[_id].genre = _genre;\r\n\t\tbooks[_id].price = _price;\r\n\t\temit BookUpdated(_id, _name, _author, _genre, _price);\r\n\t}\r\n\t\r\n}",
  "sourcePath": "C:/Users/Mihajlo/eth-project/contracts/BookStore.sol",
  "compiler": {
    "name": "solc",
    "version": "0.5.0+commit.1d4f565a.Emscripten.clang"
  },
  "schemaVersion": "3.0.1",
  "updatedAt": "2021-08-23T20:14:45.649Z",
  "devdoc": {
    "methods": {}
  },
  "userdoc": {
    "methods": {}
  }
}