{
  "contractName": "List",
  "abi": [
    {
      "constant": true,
      "inputs": [],
      "name": "taskCount",
      "outputs": [
        {
          "name": "",
          "type": "uint256"
        }
      ],
      "payable": false,
      "stateMutability": "view",
      "type": "function",
      "signature": "0xb6cb58a5"
    }
  ],
  "bytecode": "0x608060405260008055348015601357600080fd5b506099806100226000396000f3fe608060405260043610603e5763ffffffff7c0100000000000000000000000000000000000000000000000000000000600035041663b6cb58a581146043575b600080fd5b348015604e57600080fd5b5060556067565b60408051918252519081900360200190f35b6000548156fea165627a7a723058208c71b04a98ef07f3e9c54b436cb27103cf99cfa394f91521bdb8c6e4f671bfee0029",
  "source": "pragma solidity ^0.5.0;\r\n\r\ncontract List {\r\n\tuint public taskCount = 0;\r\n\r\n\r\n\tstruct Component{\r\n\t\tuint id;\r\n\t\tstring content;\r\n\t}\r\n}",
  "sourcePath": "C:/Users/Mihajlo/eth-project/contracts/List.sol",
  "compiler": {
    "name": "solc",
    "version": "0.5.0+commit.1d4f565a.Emscripten.clang"
  },
  "schemaVersion": "3.0.1",
  "updatedAt": "2021-08-21T20:13:55.110Z",
  "devdoc": {
    "methods": {}
  },
  "userdoc": {
    "methods": {}
  }
}